{
  "contractName": "SimpleBank",
  "abi": [
    {
      "anonymous": false,
      "inputs": [],
      "name": "LogDepositMade",
      "type": "event"
    },
    {
      "anonymous": false,
      "inputs": [],
      "name": "LogEnrolled",
      "type": "event"
    },
    {
      "anonymous": false,
      "inputs": [],
      "name": "LogWithdrawal",
      "type": "event"
    },
    {
      "payable": true,
      "stateMutability": "payable",
      "type": "fallback"
    },
    {
      "constant": false,
      "inputs": [],
      "name": "getBalance",
      "outputs": [
        {
          "internalType": "uint256",
          "name": "",
          "type": "uint256"
        }
      ],
      "payable": false,
      "stateMutability": "nonpayable",
      "type": "function"
    },
    {
      "constant": false,
      "inputs": [],
      "name": "enroll",
      "outputs": [
        {
          "internalType": "bool",
          "name": "",
          "type": "bool"
        }
      ],
      "payable": false,
      "stateMutability": "nonpayable",
      "type": "function"
    },
    {
      "constant": false,
      "inputs": [],
      "name": "deposit",
      "outputs": [
        {
          "internalType": "uint256",
          "name": "",
          "type": "uint256"
        }
      ],
      "payable": false,
      "stateMutability": "nonpayable",
      "type": "function"
    },
    {
      "constant": false,
      "inputs": [
        {
          "internalType": "uint256",
          "name": "withdrawAmount",
          "type": "uint256"
        }
      ],
      "name": "withdraw",
      "outputs": [
        {
          "internalType": "uint256",
          "name": "",
          "type": "uint256"
        }
      ],
      "payable": false,
      "stateMutability": "nonpayable",
      "type": "function"
    }
  ],
  "bytecode": "0x608060405233600260006101000a81548173ffffffffffffffffffffffffffffffffffffffff021916908373ffffffffffffffffffffffffffffffffffffffff16021790555034801561005157600080fd5b506101ba806100616000396000f3fe60806040526004361061003f5760003560e01c806312065fe0146100445780632e1a7d4d1461006f578063d0e30db0146100be578063e65f2a7e146100e9575b600080fd5b34801561005057600080fd5b50610059610118565b6040518082815260200191505060405180910390f35b34801561007b57600080fd5b506100a86004803603602081101561009257600080fd5b810190808035906020019092919050505061011d565b6040518082815260200191505060405180910390f35b3480156100ca57600080fd5b506100d3610124565b6040518082815260200191505060405180910390f35b3480156100f557600080fd5b506100fe610129565b604051808215151515815260200191505060405180910390f35b600090565b6000919050565b600090565b600060018060003373ffffffffffffffffffffffffffffffffffffffff1673ffffffffffffffffffffffffffffffffffffffff16815260200190815260200160002060006101000a81548160ff0219169083151502179055509056fea265627a7a723158201371f9b1201536b8ec39ce8396b91c1a4e1af9573c8d5224eb32281a0d913d7864736f6c63430005100032",
  "source": "/*\r\n * This exercise has been updated to use Solidity version 0.8.5\r\n * See the latest Solidity updates at\r\n * https://solidity.readthedocs.io/en/latest/080-breaking-changes.html\r\n */\r\n// SPDX-License-Identifier: MIT\r\npragma solidity >=0.5.16 <0.9.0;\r\n\r\ncontract SimpleBank {\r\n\r\n    /* State variables\r\n     */\r\n    \r\n    \r\n    // Fill in the visibility keyword. \r\n    // Hint: We want to protect our users balance from other contracts\r\n    mapping (address => uint) balances ;\r\n    \r\n    // Fill in the visibility keyword\r\n    // Hint: We want to create a getter function and allow contracts to be able\r\n    //       to see if a user is enrolled.\r\n    mapping (address => bool) enrolled;\r\n\r\n    // Let's make sure everyone knows who owns the bank, yes, fill in the\r\n    // appropriate visilibility keyword\r\n    address owner = msg.sender;\r\n    \r\n    /* Events - publicize actions to external listeners\r\n     */\r\n    \r\n    // Add an argument for this event, an accountAddress\r\n    event LogEnrolled();\r\n\r\n    // Add 2 arguments for this event, an accountAddress and an amount\r\n    event LogDepositMade();\r\n\r\n    // Create an event called LogWithdrawal\r\n    // Hint: it should take 3 arguments: an accountAddress, withdrawAmount and a newBalance \r\n    event LogWithdrawal();\r\n\r\n    /* Functions\r\n     */\r\n\r\n    // Fallback function - Called if other functions don't match call or\r\n    // sent ether without data\r\n    // Typically, called when invalid data is sent\r\n    // Added so ether sent to this contract is reverted if the contract fails\r\n    // otherwise, the sender's money is transferred to contract\r\n    function () external payable {\r\n        revert();\r\n    }\r\n\r\n    /// @notice Get balance\r\n    /// @return The balance of the user\r\n    function getBalance() public returns (uint) {\r\n      // 1. A SPECIAL KEYWORD prevents function from editing state variables;\r\n      //    allows function to run locally/off blockchain\r\n      // 2. Get the balance of the sender of this transaction\r\n    }\r\n\r\n    /// @notice Enroll a customer with the bank\r\n    /// @return The users enrolled status\r\n    // Emit the appropriate event\r\n    function enroll() public returns (bool){\r\n      // 1. enroll of the sender of this transaction\r\n      enrolled[msg.sender] = true;\r\n    }\r\n\r\n    /// @notice Deposit ether into bank\r\n    /// @return The balance of the user after the deposit is made\r\n    function deposit() public returns (uint) {\r\n      // 1. Add the appropriate keyword so that this function can receive ether\r\n    \r\n      // 2. Users should be enrolled before they can make deposits\r\n\r\n      // 3. Add the amount to the user's balance. Hint: the amount can be\r\n      //    accessed from of the global variable `msg`\r\n\r\n      // 4. Emit the appropriate event associated with this function\r\n\r\n      // 5. return the balance of sndr of this transaction\r\n    }\r\n\r\n    /// @notice Withdraw ether from bank\r\n    /// @dev This does not return any excess ether sent to it\r\n    /// @param withdrawAmount amount you want to withdraw\r\n    /// @return The balance remaining for the user\r\n    function withdraw(uint withdrawAmount) public returns (uint) {\r\n      // If the sender's balance is at least the amount they want to withdraw,\r\n      // Subtract the amount from the sender's balance, and try to send that amount of ether\r\n      // to the user attempting to withdraw. \r\n      // return the user's balance.\r\n\r\n      // 1. Use a require expression to guard/ensure sender has enough funds\r\n\r\n      // 2. Transfer Eth to the sender and decrement the withdrawal amount from\r\n      //    sender's balance\r\n\r\n      // 3. Emit the appropriate event for this message\r\n    }\r\n}\r\n",
  "sourcePath": "C:\\Users\\Justin Cervantes\\Desktop\\ConSensys\\simple-bank-exercise-justincervantes\\contracts\\SimpleBank.sol",
  "compiler": {
    "name": "solc",
    "version": "0.5.16+commit.9c3226ce.Emscripten.clang"
  },
  "schemaVersion": "3.4.3",
  "updatedAt": "2021-10-12T04:40:29.441Z",
  "networkType": "ethereum",
  "devdoc": {
    "methods": {
      "deposit()": {
        "return": "The balance of the user after the deposit is made"
      },
      "enroll()": {
        "return": "The users enrolled status"
      },
      "getBalance()": {
        "return": "The balance of the user"
      },
      "withdraw(uint256)": {
        "details": "This does not return any excess ether sent to it",
        "params": {
          "withdrawAmount": "amount you want to withdraw"
        },
        "return": "The balance remaining for the user"
      }
    }
  },
  "userdoc": {
    "methods": {
      "deposit()": {
        "notice": "Deposit ether into bank"
      },
      "enroll()": {
        "notice": "Enroll a customer with the bank"
      },
      "getBalance()": {
        "notice": "Get balance"
      },
      "withdraw(uint256)": {
        "notice": "Withdraw ether from bank"
      }
    }
  }
}